{
  "_format": "hh-sol-artifact-1",
  "contractName": "SecurePledgeVault",
  "sourceName": "contracts/SecurePledgeVault.sol",
  "abi": [
    {
      "inputs": [
        {
          "internalType": "address",
          "name": "_verifier",
          "type": "address"
        }
      ],
      "stateMutability": "nonpayable",
      "type": "constructor"
    },
    {
      "anonymous": false,
      "inputs": [
        {
          "indexed": true,
          "internalType": "uint256",
          "name": "pledgeId",
          "type": "uint256"
        },
        {
          "indexed": true,
          "internalType": "address",
          "name": "pledger",
          "type": "address"
        },
        {
          "indexed": false,
          "internalType": "uint256",
          "name": "amount",
          "type": "uint256"
        }
      ],
      "name": "FundsWithdrawn",
      "type": "event"
    },
    {
      "anonymous": false,
      "inputs": [
        {
          "indexed": true,
          "internalType": "uint256",
          "name": "reportId",
          "type": "uint256"
        },
        {
          "indexed": true,
          "internalType": "uint256",
          "name": "pledgeId",
          "type": "uint256"
        },
        {
          "indexed": true,
          "internalType": "address",
          "name": "reporter",
          "type": "address"
        }
      ],
      "name": "ImpactReported",
      "type": "event"
    },
    {
      "anonymous": false,
      "inputs": [
        {
          "indexed": true,
          "internalType": "uint256",
          "name": "backingId",
          "type": "uint256"
        },
        {
          "indexed": true,
          "internalType": "uint256",
          "name": "pledgeId",
          "type": "uint256"
        },
        {
          "indexed": true,
          "internalType": "address",
          "name": "backer",
          "type": "address"
        },
        {
          "indexed": false,
          "internalType": "uint256",
          "name": "amount",
          "type": "uint256"
        }
      ],
      "name": "PledgeBacked",
      "type": "event"
    },
    {
      "anonymous": false,
      "inputs": [
        {
          "indexed": true,
          "internalType": "uint256",
          "name": "pledgeId",
          "type": "uint256"
        },
        {
          "indexed": true,
          "internalType": "address",
          "name": "pledger",
          "type": "address"
        },
        {
          "indexed": false,
          "internalType": "string",
          "name": "title",
          "type": "string"
        }
      ],
      "name": "PledgeCreated",
      "type": "event"
    },
    {
      "anonymous": false,
      "inputs": [
        {
          "indexed": true,
          "internalType": "uint256",
          "name": "pledgeId",
          "type": "uint256"
        },
        {
          "indexed": false,
          "internalType": "bool",
          "name": "isVerified",
          "type": "bool"
        }
      ],
      "name": "PledgeVerified",
      "type": "event"
    },
    {
      "anonymous": false,
      "inputs": [
        {
          "indexed": true,
          "internalType": "address",
          "name": "user",
          "type": "address"
        },
        {
          "indexed": false,
          "internalType": "uint32",
          "name": "reputation",
          "type": "uint32"
        }
      ],
      "name": "ReputationUpdated",
      "type": "event"
    },
    {
      "inputs": [
        {
          "internalType": "uint256",
          "name": "pledgeId",
          "type": "uint256"
        },
        {
          "internalType": "externalEuint32",
          "name": "amount",
          "type": "bytes32"
        },
        {
          "internalType": "bytes",
          "name": "inputProof",
          "type": "bytes"
        }
      ],
      "name": "backPledge",
      "outputs": [
        {
          "internalType": "uint256",
          "name": "",
          "type": "uint256"
        }
      ],
      "stateMutability": "payable",
      "type": "function"
    },
    {
      "inputs": [],
      "name": "backingCounter",
      "outputs": [
        {
          "internalType": "uint256",
          "name": "",
          "type": "uint256"
        }
      ],
      "stateMutability": "view",
      "type": "function"
    },
    {
      "inputs": [
        {
          "internalType": "uint256",
          "name": "",
          "type": "uint256"
        }
      ],
      "name": "backings",
      "outputs": [
        {
          "internalType": "uint256",
          "name": "backingId",
          "type": "uint256"
        },
        {
          "internalType": "euint32",
          "name": "amount",
          "type": "bytes32"
        },
        {
          "internalType": "address",
          "name": "backer",
          "type": "address"
        },
        {
          "internalType": "uint256",
          "name": "timestamp",
          "type": "uint256"
        }
      ],
      "stateMutability": "view",
      "type": "function"
    },
    {
      "inputs": [
        {
          "internalType": "string",
          "name": "_title",
          "type": "string"
        },
        {
          "internalType": "string",
          "name": "_description",
          "type": "string"
        },
        {
          "internalType": "uint256",
          "name": "_targetAmount",
          "type": "uint256"
        },
        {
          "internalType": "uint256",
          "name": "_duration",
          "type": "uint256"
        }
      ],
      "name": "createPledge",
      "outputs": [
        {
          "internalType": "uint256",
          "name": "",
          "type": "uint256"
        }
      ],
      "stateMutability": "nonpayable",
      "type": "function"
    },
    {
      "inputs": [],
      "name": "emergencyWithdraw",
      "outputs": [],
      "stateMutability": "nonpayable",
      "type": "function"
    },
    {
      "inputs": [
        {
          "internalType": "uint256",
          "name": "backingId",
          "type": "uint256"
        }
      ],
      "name": "getBackingInfo",
      "outputs": [
        {
          "internalType": "euint32",
          "name": "amount",
          "type": "bytes32"
        },
        {
          "internalType": "address",
          "name": "backer",
          "type": "address"
        },
        {
          "internalType": "uint256",
          "name": "timestamp",
          "type": "uint256"
        }
      ],
      "stateMutability": "view",
      "type": "function"
    },
    {
      "inputs": [],
      "name": "getContractBalance",
      "outputs": [
        {
          "internalType": "uint256",
          "name": "",
          "type": "uint256"
        }
      ],
      "stateMutability": "view",
      "type": "function"
    },
    {
      "inputs": [
        {
          "internalType": "uint256",
          "name": "reportId",
          "type": "uint256"
        }
      ],
      "name": "getImpactReportInfo",
      "outputs": [
        {
          "internalType": "uint32",
          "name": "beneficiariesReached",
          "type": "uint32"
        },
        {
          "internalType": "euint32",
          "name": "fundsUtilized",
          "type": "bytes32"
        },
        {
          "internalType": "bool",
          "name": "isVerified",
          "type": "bool"
        },
        {
          "internalType": "string",
          "name": "reportHash",
          "type": "string"
        },
        {
          "internalType": "address",
          "name": "reporter",
          "type": "address"
        },
        {
          "internalType": "uint256",
          "name": "timestamp",
          "type": "uint256"
        }
      ],
      "stateMutability": "view",
      "type": "function"
    },
    {
      "inputs": [
        {
          "internalType": "uint256",
          "name": "pledgeId",
          "type": "uint256"
        }
      ],
      "name": "getPledgeBackings",
      "outputs": [
        {
          "internalType": "uint256[]",
          "name": "",
          "type": "uint256[]"
        }
      ],
      "stateMutability": "view",
      "type": "function"
    },
    {
      "inputs": [
        {
          "internalType": "uint256",
          "name": "pledgeId",
          "type": "uint256"
        }
      ],
      "name": "getPledgeInfo",
      "outputs": [
        {
          "internalType": "string",
          "name": "title",
          "type": "string"
        },
        {
          "internalType": "string",
          "name": "description",
          "type": "string"
        },
        {
          "internalType": "uint256",
          "name": "targetAmount",
          "type": "uint256"
        },
        {
          "internalType": "uint256",
          "name": "currentAmount",
          "type": "uint256"
        },
        {
          "internalType": "uint32",
          "name": "backerCount",
          "type": "uint32"
        },
        {
          "internalType": "bool",
          "name": "isActive",
          "type": "bool"
        },
        {
          "internalType": "bool",
          "name": "isVerified",
          "type": "bool"
        },
        {
          "internalType": "address",
          "name": "pledger",
          "type": "address"
        },
        {
          "internalType": "uint256",
          "name": "startTime",
          "type": "uint256"
        },
        {
          "internalType": "uint256",
          "name": "endTime",
          "type": "uint256"
        }
      ],
      "stateMutability": "view",
      "type": "function"
    },
    {
      "inputs": [
        {
          "internalType": "uint256",
          "name": "pledgeId",
          "type": "uint256"
        }
      ],
      "name": "getPledgeVaultBalance",
      "outputs": [
        {
          "internalType": "uint256",
          "name": "",
          "type": "uint256"
        }
      ],
      "stateMutability": "view",
      "type": "function"
    },
    {
      "inputs": [],
      "name": "getTotalVaultBalance",
      "outputs": [
        {
          "internalType": "uint256",
          "name": "",
          "type": "uint256"
        }
      ],
      "stateMutability": "view",
      "type": "function"
    },
    {
      "inputs": [
        {
          "internalType": "address",
          "name": "user",
          "type": "address"
        }
      ],
      "name": "getUserBackings",
      "outputs": [
        {
          "internalType": "uint256[]",
          "name": "",
          "type": "uint256[]"
        }
      ],
      "stateMutability": "view",
      "type": "function"
    },
    {
      "inputs": [
        {
          "internalType": "address",
          "name": "user",
          "type": "address"
        }
      ],
      "name": "getUserReputation",
      "outputs": [
        {
          "internalType": "euint32",
          "name": "",
          "type": "bytes32"
        }
      ],
      "stateMutability": "view",
      "type": "function"
    },
    {
      "inputs": [
        {
          "internalType": "uint256",
          "name": "",
          "type": "uint256"
        }
      ],
      "name": "impactReports",
      "outputs": [
        {
          "internalType": "uint256",
          "name": "reportId",
          "type": "uint256"
        },
        {
          "internalType": "uint32",
          "name": "beneficiariesReached",
          "type": "uint32"
        },
        {
          "internalType": "euint32",
          "name": "fundsUtilized",
          "type": "bytes32"
        },
        {
          "internalType": "bool",
          "name": "isVerified",
          "type": "bool"
        },
        {
          "internalType": "string",
          "name": "reportHash",
          "type": "string"
        },
        {
          "internalType": "address",
          "name": "reporter",
          "type": "address"
        },
        {
          "internalType": "uint256",
          "name": "timestamp",
          "type": "uint256"
        }
      ],
      "stateMutability": "view",
      "type": "function"
    },
    {
      "inputs": [],
      "name": "owner",
      "outputs": [
        {
          "internalType": "address",
          "name": "",
          "type": "address"
        }
      ],
      "stateMutability": "view",
      "type": "function"
    },
    {
      "inputs": [
        {
          "internalType": "uint256",
          "name": "",
          "type": "uint256"
        },
        {
          "internalType": "uint256",
          "name": "",
          "type": "uint256"
        }
      ],
      "name": "pledgeBackings",
      "outputs": [
        {
          "internalType": "uint256",
          "name": "",
          "type": "uint256"
        }
      ],
      "stateMutability": "view",
      "type": "function"
    },
    {
      "inputs": [],
      "name": "pledgeCounter",
      "outputs": [
        {
          "internalType": "uint256",
          "name": "",
          "type": "uint256"
        }
      ],
      "stateMutability": "view",
      "type": "function"
    },
    {
      "inputs": [
        {
          "internalType": "uint256",
          "name": "",
          "type": "uint256"
        }
      ],
      "name": "pledgeVaults",
      "outputs": [
        {
          "internalType": "uint256",
          "name": "",
          "type": "uint256"
        }
      ],
      "stateMutability": "view",
      "type": "function"
    },
    {
      "inputs": [
        {
          "internalType": "uint256",
          "name": "",
          "type": "uint256"
        }
      ],
      "name": "pledges",
      "outputs": [
        {
          "internalType": "uint256",
          "name": "pledgeId",
          "type": "uint256"
        },
        {
          "internalType": "uint256",
          "name": "targetAmount",
          "type": "uint256"
        },
        {
          "internalType": "uint256",
          "name": "currentAmount",
          "type": "uint256"
        },
        {
          "internalType": "uint32",
          "name": "backerCount",
          "type": "uint32"
        },
        {
          "internalType": "bool",
          "name": "isActive",
          "type": "bool"
        },
        {
          "internalType": "bool",
          "name": "isVerified",
          "type": "bool"
        },
        {
          "internalType": "string",
          "name": "title",
          "type": "string"
        },
        {
          "internalType": "string",
          "name": "description",
          "type": "string"
        },
        {
          "internalType": "address",
          "name": "pledger",
          "type": "address"
        },
        {
          "internalType": "uint256",
          "name": "startTime",
          "type": "uint256"
        },
        {
          "internalType": "uint256",
          "name": "endTime",
          "type": "uint256"
        }
      ],
      "stateMutability": "view",
      "type": "function"
    },
    {
      "inputs": [],
      "name": "protocolId",
      "outputs": [
        {
          "internalType": "uint256",
          "name": "",
          "type": "uint256"
        }
      ],
      "stateMutability": "pure",
      "type": "function"
    },
    {
      "inputs": [],
      "name": "reportCounter",
      "outputs": [
        {
          "internalType": "uint256",
          "name": "",
          "type": "uint256"
        }
      ],
      "stateMutability": "view",
      "type": "function"
    },
    {
      "inputs": [
        {
          "internalType": "uint256",
          "name": "pledgeId",
          "type": "uint256"
        },
        {
          "internalType": "uint32",
          "name": "beneficiariesReached",
          "type": "uint32"
        },
        {
          "internalType": "externalEuint32",
          "name": "fundsUtilized",
          "type": "bytes32"
        },
        {
          "internalType": "string",
          "name": "reportHash",
          "type": "string"
        },
        {
          "internalType": "bytes",
          "name": "inputProof",
          "type": "bytes"
        }
      ],
      "name": "submitImpactReport",
      "outputs": [
        {
          "internalType": "uint256",
          "name": "",
          "type": "uint256"
        }
      ],
      "stateMutability": "nonpayable",
      "type": "function"
    },
    {
      "inputs": [],
      "name": "totalVaultBalance",
      "outputs": [
        {
          "internalType": "uint256",
          "name": "",
          "type": "uint256"
        }
      ],
      "stateMutability": "view",
      "type": "function"
    },
    {
      "inputs": [
        {
          "internalType": "address",
          "name": "user",
          "type": "address"
        },
        {
          "internalType": "externalEuint32",
          "name": "reputation",
          "type": "bytes32"
        },
        {
          "internalType": "bytes",
          "name": "inputProof",
          "type": "bytes"
        }
      ],
      "name": "updateReputation",
      "outputs": [],
      "stateMutability": "nonpayable",
      "type": "function"
    },
    {
      "inputs": [
        {
          "internalType": "address",
          "name": "_verifier",
          "type": "address"
        }
      ],
      "name": "updateVerifier",
      "outputs": [],
      "stateMutability": "nonpayable",
      "type": "function"
    },
    {
      "inputs": [
        {
          "internalType": "address",
          "name": "",
          "type": "address"
        },
        {
          "internalType": "uint256",
          "name": "",
          "type": "uint256"
        }
      ],
      "name": "userBackings",
      "outputs": [
        {
          "internalType": "uint256",
          "name": "",
          "type": "uint256"
        }
      ],
      "stateMutability": "view",
      "type": "function"
    },
    {
      "inputs": [
        {
          "internalType": "address",
          "name": "",
          "type": "address"
        }
      ],
      "name": "userReputation",
      "outputs": [
        {
          "internalType": "euint32",
          "name": "",
          "type": "bytes32"
        }
      ],
      "stateMutability": "view",
      "type": "function"
    },
    {
      "inputs": [
        {
          "internalType": "address",
          "name": "",
          "type": "address"
        }
      ],
      "name": "userVaults",
      "outputs": [
        {
          "internalType": "uint256",
          "name": "",
          "type": "uint256"
        }
      ],
      "stateMutability": "view",
      "type": "function"
    },
    {
      "inputs": [],
      "name": "verifier",
      "outputs": [
        {
          "internalType": "address",
          "name": "",
          "type": "address"
        }
      ],
      "stateMutability": "view",
      "type": "function"
    },
    {
      "inputs": [
        {
          "internalType": "uint256",
          "name": "pledgeId",
          "type": "uint256"
        },
        {
          "internalType": "bool",
          "name": "isVerified",
          "type": "bool"
        }
      ],
      "name": "verifyPledge",
      "outputs": [],
      "stateMutability": "nonpayable",
      "type": "function"
    },
    {
      "inputs": [
        {
          "internalType": "uint256",
          "name": "pledgeId",
          "type": "uint256"
        }
      ],
      "name": "withdrawFunds",
      "outputs": [],
      "stateMutability": "nonpayable",
      "type": "function"
    },
    {
      "stateMutability": "payable",
      "type": "receive"
    }
  ],
  "bytecode": "0x60806040523480156200001157600080fd5b5060405162002906380380620029068339810160408190526200003491620001e5565b620001b1620000d560408051608081018252600080825260208201819052918101829052606081019190915250604080516080810182527350157cffd6bbfa2dece204a89ec419c23ef5755d815273cd3ab3bd6bcc0c0bf3e27912a92043e817b1cf69602082015273a02cda4ca3a71d7c46997716f4283aa851c2881291810191909152731364cbbf2cdf5032c47d8226a6f6fbd2afcdacac606082015290565b80517f9e7b61f58c47dc699ac88507c4f5bb9f121c03808c5676a8078fe583e464970080546001600160a01b03199081166001600160a01b039384161790915560208301517f9e7b61f58c47dc699ac88507c4f5bb9f121c03808c5676a8078fe583e46497018054831691841691909117905560408301517f9e7b61f58c47dc699ac88507c4f5bb9f121c03808c5676a8078fe583e46497028054831691841691909117905560608301517f9e7b61f58c47dc699ac88507c4f5bb9f121c03808c5676a8078fe583e46497038054909216921691909117905550565b600c8054336001600160a01b031991821617909155600d80549091166001600160a01b039290921691909117905562000217565b600060208284031215620001f857600080fd5b81516001600160a01b03811681146200021057600080fd5b9392505050565b6126df80620002276000396000f3fe6080604052600436106101e75760003560e01c806378bdce7c11610102578063da1f12ab11610095578063e86dab2b11610064578063e86dab2b14610644578063f744436e146106b0578063f7b8769f146106dd578063fb0af4eb146106f357600080fd5b8063da1f12ab14610570578063da9c886414610585578063db2e21bc14610602578063e503bb051461061757600080fd5b8063ac124081116100d1578063ac124081146104d7578063b9bc38f21461050e578063baccbfdb14610524578063cc5d195e1461055a57600080fd5b806378bdce7c1461044e5780638da5cb5b1461048457806397fc007c146104a4578063a2bc56a1146104c457600080fd5b80632b7ac3f31161017a5780633e6067d7116101495780633e6067d7146103c957806353a29efa146103e95780635eb476491461041b5780636f9fb98a1461043b57600080fd5b80632b7ac3f31461032457806331655b2e1461035c578063322a32191461037c5780633c574c4e146103a957600080fd5b8063155dd5ee116101b6578063155dd5ee146102955780631fe53eb6146102b55780632869eae2146102e25780632958d031146102f757600080fd5b8063011a17ad146101f3578063081a5d131461022f5780630f811ca514610251578063104da27e1461027557600080fd5b366101ee57005b600080fd5b3480156101ff57600080fd5b5061021361020e366004611edb565b610713565b6040516102269796959493929190611f3a565b60405180910390f35b34801561023b57600080fd5b5061024f61024a366004611f8c565b6107ed565b005b34801561025d57600080fd5b50610267600a5481565b604051908152602001610226565b34801561028157600080fd5b50610267610290366004611fc1565b610917565b3480156102a157600080fd5b5061024f6102b0366004611edb565b610948565b3480156102c157600080fd5b506102d56102d0366004611edb565b610bce565b6040516102269190611fe3565b3480156102ee57600080fd5b50600254610267565b34801561030357600080fd5b50610267610312366004612043565b60016020526000908152604090205481565b34801561033057600080fd5b50600d54610344906001600160a01b031681565b6040516001600160a01b039091168152602001610226565b34801561036857600080fd5b5061026761037736600461214a565b610c30565b34801561038857600080fd5b50610267610397366004611edb565b60009081526020819052604090205490565b3480156103b557600080fd5b506102676103c43660046121e3565b610f26565b3480156103d557600080fd5b506102676103e436600461220d565b610f42565b3480156103f557600080fd5b50610409610404366004611edb565b61118d565b60405161022696959493929190612281565b34801561042757600080fd5b5061024f6104363660046122cc565b611287565b34801561044757600080fd5b5047610267565b34801561045a57600080fd5b5061046e610469366004611edb565b61142c565b6040516102269a99989796959493929190612326565b34801561049057600080fd5b50600c54610344906001600160a01b031681565b3480156104b057600080fd5b5061024f6104bf366004612043565b6115e7565b6102676104d236600461239f565b6116b9565b3480156104e357600080fd5b506104f76104f2366004611edb565b611a6a565b6040516102269b9a999897969594939291906123da565b34801561051a57600080fd5b50610267600b5481565b34801561053057600080fd5b5061026761053f366004612043565b6001600160a01b031660009081526006602052604090205490565b34801561056657600080fd5b5061026760025481565b34801561057c57600080fd5b50612711610267565b34801561059157600080fd5b506105d36105a0366004611edb565b6004602052600090815260409020805460018201546002830154600390930154919290916001600160a01b039091169084565b604051610226949392919093845260208401929092526001600160a01b03166040830152606082015260800190565b34801561060e57600080fd5b5061024f611bef565b34801561062357600080fd5b50610267610632366004612043565b60066020526000908152604090205481565b34801561065057600080fd5b5061068d61065f366004611edb565b60009081526004602052604090206001810154600282015460039092015490926001600160a01b0390921691565b604080519384526001600160a01b03909216602084015290820152606001610226565b3480156106bc57600080fd5b506102676106cb366004611edb565b60006020819052908152604090205481565b3480156106e957600080fd5b5061026760095481565b3480156106ff57600080fd5b506102d561070e366004612043565b611c8f565b60056020526000908152604090208054600182015460028301546003840154600485018054949563ffffffff90941694929360ff9092169261075490612460565b80601f016020809104026020016040519081016040528092919081815260200182805461078090612460565b80156107cd5780601f106107a2576101008083540402835291602001916107cd565b820191906000526020600020905b8154815290600101906020018083116107b057829003601f168201915b50505050600583015460069093015491926001600160a01b031691905087565b600d546001600160a01b0316331461084c5760405162461bcd60e51b815260206004820181905260248201527f4f6e6c792076657269666965722063616e2076657269667920706c656467657360448201526064015b60405180910390fd5b6000828152600360205260409020600601546001600160a01b03166108ab5760405162461bcd60e51b8152602060048201526015602482015274141b195919d948191bd95cc81b9bdd08195e1a5cdd605a1b6044820152606401610843565b600082815260036020819052604091829020018054831515600160281b0265ff0000000000199091161790555182907f7e13a88ae58b9741ef0e5b01b0ad7e36e067dcb917d46efea2ad8f066f5205839061090b90841515815260200190565b60405180910390a25050565b6007602052816000526040600020818154811061093357600080fd5b90600052602060002001600091509150505481565b6000818152600360205260409020600601546001600160a01b031633146109b15760405162461bcd60e51b815260206004820152601960248201527f4f6e6c7920706c65646765722063616e207769746864726177000000000000006044820152606401610843565b60008181526003602081905260409091200154600160281b900460ff16610a1a5760405162461bcd60e51b815260206004820152601760248201527f506c65646765206d7573742062652076657269666965640000000000000000006044820152606401610843565b6000818152600360205260409020600801544211610a715760405162461bcd60e51b8152602060048201526014602482015273141b195919d9481b5d5cdd08189948195b99195960621b6044820152606401610843565b60008181526003602081905260409091200154640100000000900460ff16610ad35760405162461bcd60e51b8152602060048201526015602482015274506c65646765206d7573742062652061637469766560581b6044820152606401610843565b60008181526020819052604090205480610b265760405162461bcd60e51b81526020600482015260146024820152734e6f2066756e647320746f20776974686472617760601b6044820152606401610843565b6000828152600360208181526040808420909201805464ff0000000019169055829052812081905560028054839290610b609084906124b0565b9091555050604051339082156108fc029083906000818181858888f19350505050158015610b92573d6000803e3d6000fd5b50604051818152339083907ff440aec6b52895984d061d622e6edeba6210f7c3e059be920663140c084560d79060200160405180910390a35050565b600081815260076020908152604091829020805483518184028101840190945280845260609392830182828015610c2457602002820191906000526020600020905b815481526020019060010190808311610c10575b50505050509050919050565b6000868152600360205260408120600601546001600160a01b03163314610c995760405162461bcd60e51b815260206004820152601e60248201527f4f6e6c7920706c65646765722063616e207375626d6974207265706f727400006044820152606401610843565b60008781526003602081905260409091200154640100000000900460ff16610cfb5760405162461bcd60e51b8152602060048201526015602482015274506c65646765206d7573742062652061637469766560581b6044820152606401610843565b6000845111610d4c5760405162461bcd60e51b815260206004820152601b60248201527f5265706f727420686173682063616e6e6f7420626520656d70747900000000006044820152606401610843565b600b805460009182610d5d836124c3565b9190505590506040518060e001604052808281526020018863ffffffff168152602001610dc08887878080601f016020809104026020016040519081016040528093929190818152602001838380828437600092019190915250611cf992505050565b81526000602080830182905260408084018a905233606080860191909152426080958601528684526005835292819020855181559185015160018301805463ffffffff191663ffffffff90921691909117905584015160028201559083015160038201805460ff1916911515919091179055908201516004820190610e45908261252d565b5060a0820151600582810180546001600160a01b0319166001600160a01b039093169290921790915560c09092015160069091015560008281526020919091526040902060020154610e979033611d10565b506000818152600560209081526040808320600201548b8452600390925290912060060154610ecf91906001600160a01b0316611d10565b50600081815260056020526040812060020154610eeb91611d10565b506040513390899083907f2664937806df3bfa31a0d5507b5cdb43c1a363eb5c085b84e7fc6bef2082c29990600090a4979650505050505050565b6008602052816000526040600020818154811061093357600080fd5b600080855111610f945760405162461bcd60e51b815260206004820152601c60248201527f506c65646765207469746c652063616e6e6f7420626520656d707479000000006044820152606401610843565b60008211610fe45760405162461bcd60e51b815260206004820152601960248201527f4475726174696f6e206d75737420626520706f736974697665000000000000006044820152606401610843565b6009805460009182610ff5836124c3565b91905055905060405180610160016040528082815260200185815260200160008152602001600063ffffffff168152602001600115158152602001600015158152602001878152602001868152602001336001600160a01b03168152602001428152602001844261106691906125ed565b90526000828152600360208181526040928390208451815590840151600182015591830151600283015560608301519082018054608085015160a08601511515600160281b0265ff0000000000199115156401000000000264ffffffffff1990931663ffffffff90951694909417919091171691909117905560c082015160048201906110f3908261252d565b5060e08201516005820190611108908261252d565b506101008201516006820180546001600160a01b0319166001600160a01b03909216919091179055610120820151600782015561014090910151600890910155604051339082907faab6b44521174646c671f3bb847f1ead7475fc18f60b866fd5a54079069776bc9061117c908a90612600565b60405180910390a395945050505050565b600081815260056020819052604082206001810154600282015460038301549383015460068401546004850180548897889760609789978897929663ffffffff90921695909460ff9094169390926001600160a01b0316919083906111f190612460565b80601f016020809104026020016040519081016040528092919081815260200182805461121d90612460565b801561126a5780601f1061123f5761010080835404028352916020019161126a565b820191906000526020600020905b81548152906001019060200180831161124d57829003601f168201915b505050505092509650965096509650965096505091939550919395565b600d546001600160a01b031633146112ed5760405162461bcd60e51b815260206004820152602360248201527f4f6e6c792076657269666965722063616e20757064617465207265707574617460448201526234b7b760e91b6064820152608401610843565b6001600160a01b03841661133a5760405162461bcd60e51b8152602060048201526014602482015273496e76616c69642075736572206164647265737360601b6044820152606401610843565b61137a8383838080601f016020809104026020016040519081016040528093929190818152602001838380828437600092019190915250611cf992505050565b6001600160a01b038516600090815260066020526040902081905561139f9085611d10565b506001600160a01b0384166000908152600660205260409020546113c39033611d10565b506001600160a01b0384166000908152600660205260408120546113e691611d10565b50604051600081526001600160a01b038516907fbc29a8e6655836a9c09ee2d874d0ec6df064e0b7d9d9dd0f097ad3f2874ed9869060200160405180910390a250505050565b6000818152600360208190526040822060018101546002820154928201546006830154600784015460088501546004860180546060998a999098899889988998899889988998899896979096600589019695919463ffffffff83169460ff6401000000008504811695600160281b90950416936001600160a01b03909216929091908a906114b990612460565b80601f01602080910402602001604051908101604052809291908181526020018280546114e590612460565b80156115325780601f1061150757610100808354040283529160200191611532565b820191906000526020600020905b81548152906001019060200180831161151557829003601f168201915b5050505050995088805461154590612460565b80601f016020809104026020016040519081016040528092919081815260200182805461157190612460565b80156115be5780601f10611593576101008083540402835291602001916115be565b820191906000526020600020905b8154815290600101906020018083116115a157829003601f168201915b505050505098509a509a509a509a509a509a509a509a509a509a50509193959799509193959799565b600c546001600160a01b031633146116415760405162461bcd60e51b815260206004820152601e60248201527f4f6e6c79206f776e65722063616e2075706461746520766572696669657200006044820152606401610843565b6001600160a01b0381166116975760405162461bcd60e51b815260206004820152601860248201527f496e76616c6964207665726966696572206164647265737300000000000000006044820152606401610843565b600d80546001600160a01b0319166001600160a01b0392909216919091179055565b6000848152600360205260408120600601546001600160a01b03166117185760405162461bcd60e51b8152602060048201526015602482015274141b195919d948191bd95cc81b9bdd08195e1a5cdd605a1b6044820152606401610843565b60008581526003602081905260409091200154640100000000900460ff166117795760405162461bcd60e51b8152602060048201526014602482015273506c65646765206973206e6f742061637469766560601b6044820152606401610843565b6000858152600360205260409020600801544211156117cd5760405162461bcd60e51b815260206004820152601060248201526f141b195919d9481a185cc8195b99195960821b6044820152606401610843565b6000341161181d5760405162461bcd60e51b815260206004820152601c60248201527f4d7573742073656e642045544820746f206261636b20706c65646765000000006044820152606401610843565b600a80546000918261182e836124c3565b91905055905060405180608001604052808281526020016118858787878080601f016020809104026020016040519081016040528093929190818152602001838380828437600092019190915250611cf992505050565b815233602080830182905242604093840152600085815260048252839020845181559084015160018201819055928401516002820180546001600160a01b0319166001600160a01b039092169190911790556060909301516003909301929092556118ef91611d10565b5060008181526004602090815260408083206001015489845260039092529091206006015461192791906001600160a01b0316611d10565b5060008181526004602052604081206001015461194391611d10565b50600086815260208190526040812080543492906119629084906125ed565b92505081905550346002600082825461197b91906125ed565b9091555050600086815260036020526040812060020180543492906119a19084906125ed565b909155505060008681526003602081905260408220018054600192906119ce90849063ffffffff16612613565b825463ffffffff9182166101009390930a9283029190920219909116179055506000868152600760209081526040808320805460018181018355918552838520018590553380855260088452828520805492830181558552938390200184905551348152889184917f93623d91382bd8fe94f0e8b56fc5264fa0e8d9d0ec21dea902885c4bfd953a85910160405180910390a495945050505050565b60036020819052600091825260409091208054600182015460028301549383015460048401805493959294929363ffffffff83169360ff6401000000008504811694600160281b900416929091611ac090612460565b80601f0160208091040260200160405190810160405280929190818152602001828054611aec90612460565b8015611b395780601f10611b0e57610100808354040283529160200191611b39565b820191906000526020600020905b815481529060010190602001808311611b1c57829003601f168201915b505050505090806005018054611b4e90612460565b80601f0160208091040260200160405190810160405280929190818152602001828054611b7a90612460565b8015611bc75780601f10611b9c57610100808354040283529160200191611bc7565b820191906000526020600020905b815481529060010190602001808311611baa57829003601f168201915b505050506006830154600784015460089094015492936001600160a01b03909116929091508b565b600c546001600160a01b03163314611c535760405162461bcd60e51b815260206004820152602160248201527f4f6e6c79206f776e65722063616e20656d657267656e637920776974686472616044820152607760f81b6064820152608401610843565b600c546040516001600160a01b03909116904780156108fc02916000818181858888f19350505050158015611c8c573d6000803e3d6000fd5b50565b6001600160a01b038116600090815260086020908152604091829020805483518184028101840190945280845260609392830182828015610c245760200282019190600052602060002090815481526020019060010190808311610c105750505050509050919050565b6000611d0783836004611d23565b90505b92915050565b6000611d1c8383611e4c565b5090919050565b7f9e7b61f58c47dc699ac88507c4f5bb9f121c03808c5676a8078fe583e46497015460405163196d0b9b60e01b81526000917f9e7b61f58c47dc699ac88507c4f5bb9f121c03808c5676a8078fe583e4649700916001600160a01b039091169063196d0b9b90611d9d908890339089908990600401612637565b6020604051808303816000875af1158015611dbc573d6000803e3d6000fd5b505050506040513d601f19601f82011682018060405250810190611de09190612690565b8154604051630f8e573b60e21b8152600481018390523360248201529193506001600160a01b031690633e395cec90604401600060405180830381600087803b158015611e2c57600080fd5b505af1158015611e40573d6000803e3d6000fd5b50505050509392505050565b60007f9e7b61f58c47dc699ac88507c4f5bb9f121c03808c5676a8078fe583e46497008054604051635ca4b5b160e11b8152600481018690526001600160a01b03858116602483015292935091169063b9496b6290604401600060405180830381600087803b158015611ebe57600080fd5b505af1158015611ed2573d6000803e3d6000fd5b50505050505050565b600060208284031215611eed57600080fd5b5035919050565b6000815180845260005b81811015611f1a57602081850181015186830182015201611efe565b506000602082860101526020601f19601f83011685010191505092915050565b87815263ffffffff87166020820152856040820152841515606082015260e060808201526000611f6d60e0830186611ef4565b6001600160a01b039490941660a08301525060c0015295945050505050565b60008060408385031215611f9f57600080fd5b8235915060208301358015158114611fb657600080fd5b809150509250929050565b60008060408385031215611fd457600080fd5b50508035926020909101359150565b6020808252825182820181905260009190848201906040850190845b8181101561201b57835183529284019291840191600101611fff565b50909695505050505050565b80356001600160a01b038116811461203e57600080fd5b919050565b60006020828403121561205557600080fd5b611d0782612027565b634e487b7160e01b600052604160045260246000fd5b600082601f83011261208557600080fd5b813567ffffffffffffffff808211156120a0576120a061205e565b604051601f8301601f19908116603f011681019082821181831017156120c8576120c861205e565b816040528381528660208588010111156120e157600080fd5b836020870160208301376000602085830101528094505050505092915050565b60008083601f84011261211357600080fd5b50813567ffffffffffffffff81111561212b57600080fd5b60208301915083602082850101111561214357600080fd5b9250929050565b60008060008060008060a0878903121561216357600080fd5b86359550602087013563ffffffff8116811461217e57600080fd5b945060408701359350606087013567ffffffffffffffff808211156121a257600080fd5b6121ae8a838b01612074565b945060808901359150808211156121c457600080fd5b506121d189828a01612101565b979a9699509497509295939492505050565b600080604083850312156121f657600080fd5b6121ff83612027565b946020939093013593505050565b6000806000806080858703121561222357600080fd5b843567ffffffffffffffff8082111561223b57600080fd5b61224788838901612074565b9550602087013591508082111561225d57600080fd5b5061226a87828801612074565b949794965050505060408301359260600135919050565b63ffffffff87168152856020820152841515604082015260c0606082015260006122ae60c0830186611ef4565b6001600160a01b039490941660808301525060a00152949350505050565b600080600080606085870312156122e257600080fd5b6122eb85612027565b935060208501359250604085013567ffffffffffffffff81111561230e57600080fd5b61231a87828801612101565b95989497509550505050565b600061014080835261233a8184018e611ef4565b9050828103602084015261234e818d611ef4565b604084019b909b525050606081019790975263ffffffff95909516608087015292151560a086015290151560c08501526001600160a01b031660e08401526101008301526101209091015292915050565b600080600080606085870312156123b557600080fd5b8435935060208501359250604085013567ffffffffffffffff81111561230e57600080fd5b60006101608d83528c60208401528b604084015263ffffffff8b166060840152891515608084015288151560a08401528060c084015261241c81840189611ef4565b905082810360e08401526124308188611ef4565b6001600160a01b039690961661010084015250506101208101929092526101409091015298975050505050505050565b600181811c9082168061247457607f821691505b60208210810361249457634e487b7160e01b600052602260045260246000fd5b50919050565b634e487b7160e01b600052601160045260246000fd5b81810381811115611d0a57611d0a61249a565b6000600182016124d5576124d561249a565b5060010190565b601f821115612528576000816000526020600020601f850160051c810160208610156125055750805b601f850160051c820191505b8181101561252457828155600101612511565b5050505b505050565b815167ffffffffffffffff8111156125475761254761205e565b61255b816125558454612460565b846124dc565b602080601f83116001811461259057600084156125785750858301515b600019600386901b1c1916600185901b178555612524565b600085815260208120601f198616915b828110156125bf578886015182559484019460019091019084016125a0565b50858210156125dd5787850151600019600388901b60f8161c191681555b5050505050600190811b01905550565b80820180821115611d0a57611d0a61249a565b602081526000611d076020830184611ef4565b63ffffffff8181168382160190808211156126305761263061249a565b5092915050565b8481526001600160a01b038416602082015260806040820181905260009061266190830185611ef4565b90506054831061268157634e487b7160e01b600052602160045260246000fd5b82606083015295945050505050565b6000602082840312156126a257600080fd5b505191905056fea2646970667358221220e5e92e73f275c785066cc089bd7e25b2ec06e5189d7fb74a03093014a76f6ed064736f6c63430008180033",
  "linkReferences": {},
  "deployedLinkReferences": {}
}